{
  "address": "0x525957f0bc0ff79FB010b8576d5B6B33D8972F92",
  "abi": [
    {
      "inputs": [],
      "stateMutability": "nonpayable",
      "type": "constructor"
    },
    {
      "anonymous": false,
      "inputs": [
        {
          "indexed": true,
          "internalType": "address",
          "name": "owner",
          "type": "address"
        },
        {
          "indexed": true,
          "internalType": "address",
          "name": "spender",
          "type": "address"
        },
        {
          "indexed": false,
          "internalType": "uint256",
          "name": "value",
          "type": "uint256"
        }
      ],
      "name": "Approval",
      "type": "event"
    },
    {
      "anonymous": false,
      "inputs": [
        {
          "indexed": true,
          "internalType": "address",
          "name": "previousOwner",
          "type": "address"
        },
        {
          "indexed": true,
          "internalType": "address",
          "name": "newOwner",
          "type": "address"
        }
      ],
      "name": "OwnershipTransferred",
      "type": "event"
    },
    {
      "anonymous": false,
      "inputs": [
        {
          "indexed": true,
          "internalType": "address",
          "name": "from",
          "type": "address"
        },
        {
          "indexed": true,
          "internalType": "address",
          "name": "to",
          "type": "address"
        },
        {
          "indexed": false,
          "internalType": "uint256",
          "name": "value",
          "type": "uint256"
        }
      ],
      "name": "Transfer",
      "type": "event"
    },
    {
      "inputs": [
        {
          "internalType": "address",
          "name": "owner",
          "type": "address"
        },
        {
          "internalType": "address",
          "name": "spender",
          "type": "address"
        }
      ],
      "name": "allowance",
      "outputs": [
        {
          "internalType": "uint256",
          "name": "",
          "type": "uint256"
        }
      ],
      "stateMutability": "view",
      "type": "function"
    },
    {
      "inputs": [
        {
          "internalType": "address",
          "name": "spender",
          "type": "address"
        },
        {
          "internalType": "uint256",
          "name": "amount",
          "type": "uint256"
        }
      ],
      "name": "approve",
      "outputs": [
        {
          "internalType": "bool",
          "name": "",
          "type": "bool"
        }
      ],
      "stateMutability": "nonpayable",
      "type": "function"
    },
    {
      "inputs": [
        {
          "internalType": "address",
          "name": "account",
          "type": "address"
        }
      ],
      "name": "balanceOf",
      "outputs": [
        {
          "internalType": "uint256",
          "name": "",
          "type": "uint256"
        }
      ],
      "stateMutability": "view",
      "type": "function"
    },
    {
      "inputs": [
        {
          "internalType": "uint256",
          "name": "amount",
          "type": "uint256"
        }
      ],
      "name": "burn",
      "outputs": [
        {
          "internalType": "bool",
          "name": "",
          "type": "bool"
        }
      ],
      "stateMutability": "nonpayable",
      "type": "function"
    },
    {
      "inputs": [],
      "name": "buyAccumulationFee",
      "outputs": [
        {
          "internalType": "uint128",
          "name": "numerator",
          "type": "uint128"
        },
        {
          "internalType": "uint128",
          "name": "denominator",
          "type": "uint128"
        }
      ],
      "stateMutability": "view",
      "type": "function"
    },
    {
      "inputs": [],
      "name": "decimals",
      "outputs": [
        {
          "internalType": "uint8",
          "name": "",
          "type": "uint8"
        }
      ],
      "stateMutability": "view",
      "type": "function"
    },
    {
      "inputs": [
        {
          "internalType": "address",
          "name": "spender",
          "type": "address"
        },
        {
          "internalType": "uint256",
          "name": "subtractedValue",
          "type": "uint256"
        }
      ],
      "name": "decreaseAllowance",
      "outputs": [
        {
          "internalType": "bool",
          "name": "",
          "type": "bool"
        }
      ],
      "stateMutability": "nonpayable",
      "type": "function"
    },
    {
      "inputs": [
        {
          "internalType": "address",
          "name": "account",
          "type": "address"
        }
      ],
      "name": "excludeAccount",
      "outputs": [],
      "stateMutability": "nonpayable",
      "type": "function"
    },
    {
      "inputs": [],
      "name": "feeDestination",
      "outputs": [
        {
          "internalType": "enum Ledgity.FeeDestination",
          "name": "",
          "type": "uint8"
        }
      ],
      "stateMutability": "view",
      "type": "function"
    },
    {
      "inputs": [
        {
          "internalType": "address",
          "name": "",
          "type": "address"
        }
      ],
      "name": "firstSellAt",
      "outputs": [
        {
          "internalType": "uint256",
          "name": "",
          "type": "uint256"
        }
      ],
      "stateMutability": "view",
      "type": "function"
    },
    {
      "inputs": [],
      "name": "getDexes",
      "outputs": [
        {
          "internalType": "address[]",
          "name": "",
          "type": "address[]"
        }
      ],
      "stateMutability": "view",
      "type": "function"
    },
    {
      "inputs": [],
      "name": "getExcluded",
      "outputs": [
        {
          "internalType": "address[]",
          "name": "",
          "type": "address[]"
        }
      ],
      "stateMutability": "view",
      "type": "function"
    },
    {
      "inputs": [],
      "name": "getExcludedFromDexFee",
      "outputs": [
        {
          "internalType": "address[]",
          "name": "",
          "type": "address[]"
        }
      ],
      "stateMutability": "view",
      "type": "function"
    },
    {
      "inputs": [],
      "name": "getExcludedFromLimits",
      "outputs": [
        {
          "internalType": "address[]",
          "name": "",
          "type": "address[]"
        }
      ],
      "stateMutability": "view",
      "type": "function"
    },
    {
      "inputs": [],
      "name": "inSwapAndLiquify",
      "outputs": [
        {
          "internalType": "bool",
          "name": "",
          "type": "bool"
        }
      ],
      "stateMutability": "view",
      "type": "function"
    },
    {
      "inputs": [
        {
          "internalType": "address",
          "name": "account",
          "type": "address"
        }
      ],
      "name": "includeAccount",
      "outputs": [],
      "stateMutability": "nonpayable",
      "type": "function"
    },
    {
      "inputs": [
        {
          "internalType": "address",
          "name": "spender",
          "type": "address"
        },
        {
          "internalType": "uint256",
          "name": "addedValue",
          "type": "uint256"
        }
      ],
      "name": "increaseAllowance",
      "outputs": [
        {
          "internalType": "bool",
          "name": "",
          "type": "bool"
        }
      ],
      "stateMutability": "nonpayable",
      "type": "function"
    },
    {
      "inputs": [],
      "name": "initialBuyAccumulationFee",
      "outputs": [
        {
          "internalType": "uint128",
          "name": "numerator",
          "type": "uint128"
        },
        {
          "internalType": "uint128",
          "name": "denominator",
          "type": "uint128"
        }
      ],
      "stateMutability": "view",
      "type": "function"
    },
    {
      "inputs": [],
      "name": "initialPrice",
      "outputs": [
        {
          "internalType": "uint256",
          "name": "",
          "type": "uint256"
        }
      ],
      "stateMutability": "view",
      "type": "function"
    },
    {
      "inputs": [],
      "name": "initialSellAccumulationFee",
      "outputs": [
        {
          "internalType": "uint128",
          "name": "numerator",
          "type": "uint128"
        },
        {
          "internalType": "uint128",
          "name": "denominator",
          "type": "uint128"
        }
      ],
      "stateMutability": "view",
      "type": "function"
    },
    {
      "inputs": [],
      "name": "initialSellAtSmallPriceAccumulationFee",
      "outputs": [
        {
          "internalType": "uint128",
          "name": "numerator",
          "type": "uint128"
        },
        {
          "internalType": "uint128",
          "name": "denominator",
          "type": "uint128"
        }
      ],
      "stateMutability": "view",
      "type": "function"
    },
    {
      "inputs": [],
      "name": "initialSellReflectionFee",
      "outputs": [
        {
          "internalType": "uint128",
          "name": "numerator",
          "type": "uint128"
        },
        {
          "internalType": "uint128",
          "name": "denominator",
          "type": "uint128"
        }
      ],
      "stateMutability": "view",
      "type": "function"
    },
    {
      "inputs": [],
      "name": "initialTotalSupply",
      "outputs": [
        {
          "internalType": "uint256",
          "name": "",
          "type": "uint256"
        }
      ],
      "stateMutability": "view",
      "type": "function"
    },
    {
      "inputs": [
        {
          "internalType": "address",
          "name": "priceOracleAddress",
          "type": "address"
        }
      ],
      "name": "initializePriceOracle",
      "outputs": [],
      "stateMutability": "nonpayable",
      "type": "function"
    },
    {
      "inputs": [
        {
          "internalType": "address",
          "name": "reserveAddress",
          "type": "address"
        }
      ],
      "name": "initializeReserve",
      "outputs": [],
      "stateMutability": "nonpayable",
      "type": "function"
    },
    {
      "inputs": [
        {
          "internalType": "address",
          "name": "account",
          "type": "address"
        }
      ],
      "name": "isDex",
      "outputs": [
        {
          "internalType": "bool",
          "name": "",
          "type": "bool"
        }
      ],
      "stateMutability": "view",
      "type": "function"
    },
    {
      "inputs": [
        {
          "internalType": "address",
          "name": "account",
          "type": "address"
        }
      ],
      "name": "isExcluded",
      "outputs": [
        {
          "internalType": "bool",
          "name": "",
          "type": "bool"
        }
      ],
      "stateMutability": "view",
      "type": "function"
    },
    {
      "inputs": [
        {
          "internalType": "address",
          "name": "account",
          "type": "address"
        }
      ],
      "name": "isExcludedFromDexFee",
      "outputs": [
        {
          "internalType": "bool",
          "name": "",
          "type": "bool"
        }
      ],
      "stateMutability": "view",
      "type": "function"
    },
    {
      "inputs": [
        {
          "internalType": "address",
          "name": "account",
          "type": "address"
        }
      ],
      "name": "isExcludedFromLimits",
      "outputs": [
        {
          "internalType": "bool",
          "name": "",
          "type": "bool"
        }
      ],
      "stateMutability": "view",
      "type": "function"
    },
    {
      "inputs": [],
      "name": "maxTransactionSize",
      "outputs": [
        {
          "internalType": "uint256",
          "name": "",
          "type": "uint256"
        }
      ],
      "stateMutability": "view",
      "type": "function"
    },
    {
      "inputs": [],
      "name": "maxTransactionSizePercent",
      "outputs": [
        {
          "internalType": "uint128",
          "name": "numerator",
          "type": "uint128"
        },
        {
          "internalType": "uint128",
          "name": "denominator",
          "type": "uint128"
        }
      ],
      "stateMutability": "view",
      "type": "function"
    },
    {
      "inputs": [],
      "name": "name",
      "outputs": [
        {
          "internalType": "string",
          "name": "",
          "type": "string"
        }
      ],
      "stateMutability": "view",
      "type": "function"
    },
    {
      "inputs": [],
      "name": "numTokensToSwap",
      "outputs": [
        {
          "internalType": "uint256",
          "name": "",
          "type": "uint256"
        }
      ],
      "stateMutability": "view",
      "type": "function"
    },
    {
      "inputs": [],
      "name": "owner",
      "outputs": [
        {
          "internalType": "address",
          "name": "",
          "type": "address"
        }
      ],
      "stateMutability": "view",
      "type": "function"
    },
    {
      "inputs": [],
      "name": "priceOracle",
      "outputs": [
        {
          "internalType": "contract ILedgityPriceOracle",
          "name": "",
          "type": "address"
        }
      ],
      "stateMutability": "view",
      "type": "function"
    },
    {
      "inputs": [
        {
          "internalType": "uint256",
          "name": "tAmount",
          "type": "uint256"
        }
      ],
      "name": "reflect",
      "outputs": [],
      "stateMutability": "nonpayable",
      "type": "function"
    },
    {
      "inputs": [
        {
          "internalType": "uint256",
          "name": "tAmount",
          "type": "uint256"
        },
        {
          "internalType": "bool",
          "name": "deductTransferFee",
          "type": "bool"
        }
      ],
      "name": "reflectionFromToken",
      "outputs": [
        {
          "internalType": "uint256",
          "name": "",
          "type": "uint256"
        }
      ],
      "stateMutability": "view",
      "type": "function"
    },
    {
      "inputs": [],
      "name": "renounceOwnership",
      "outputs": [],
      "stateMutability": "nonpayable",
      "type": "function"
    },
    {
      "inputs": [],
      "name": "reserve",
      "outputs": [
        {
          "internalType": "contract IReserve",
          "name": "",
          "type": "address"
        }
      ],
      "stateMutability": "view",
      "type": "function"
    },
    {
      "inputs": [],
      "name": "sellAccumulationFee",
      "outputs": [
        {
          "internalType": "uint128",
          "name": "numerator",
          "type": "uint128"
        },
        {
          "internalType": "uint128",
          "name": "denominator",
          "type": "uint128"
        }
      ],
      "stateMutability": "view",
      "type": "function"
    },
    {
      "inputs": [],
      "name": "sellAtSmallPriceAccumulationFee",
      "outputs": [
        {
          "internalType": "uint128",
          "name": "numerator",
          "type": "uint128"
        },
        {
          "internalType": "uint128",
          "name": "denominator",
          "type": "uint128"
        }
      ],
      "stateMutability": "view",
      "type": "function"
    },
    {
      "inputs": [],
      "name": "sellReflectionFee",
      "outputs": [
        {
          "internalType": "uint128",
          "name": "numerator",
          "type": "uint128"
        },
        {
          "internalType": "uint128",
          "name": "denominator",
          "type": "uint128"
        }
      ],
      "stateMutability": "view",
      "type": "function"
    },
    {
      "inputs": [
        {
          "internalType": "uint128",
          "name": "numerator",
          "type": "uint128"
        },
        {
          "internalType": "uint128",
          "name": "denominator",
          "type": "uint128"
        }
      ],
      "name": "setBuyAccumulationFee",
      "outputs": [],
      "stateMutability": "nonpayable",
      "type": "function"
    },
    {
      "inputs": [
        {
          "internalType": "address",
          "name": "target",
          "type": "address"
        },
        {
          "internalType": "bool",
          "name": "dex",
          "type": "bool"
        }
      ],
      "name": "setDex",
      "outputs": [],
      "stateMutability": "nonpayable",
      "type": "function"
    },
    {
      "inputs": [
        {
          "internalType": "enum Ledgity.FeeDestination",
          "name": "fd",
          "type": "uint8"
        }
      ],
      "name": "setFeeDestination",
      "outputs": [],
      "stateMutability": "nonpayable",
      "type": "function"
    },
    {
      "inputs": [
        {
          "internalType": "uint256",
          "name": "_initialPrice",
          "type": "uint256"
        }
      ],
      "name": "setInitialPrice",
      "outputs": [],
      "stateMutability": "nonpayable",
      "type": "function"
    },
    {
      "inputs": [
        {
          "internalType": "address",
          "name": "account",
          "type": "address"
        },
        {
          "internalType": "bool",
          "name": "isExcluded",
          "type": "bool"
        }
      ],
      "name": "setIsExcludedFromDexFee",
      "outputs": [],
      "stateMutability": "nonpayable",
      "type": "function"
    },
    {
      "inputs": [
        {
          "internalType": "address",
          "name": "account",
          "type": "address"
        },
        {
          "internalType": "bool",
          "name": "isExcluded",
          "type": "bool"
        }
      ],
      "name": "setIsExcludedFromLimits",
      "outputs": [],
      "stateMutability": "nonpayable",
      "type": "function"
    },
    {
      "inputs": [
        {
          "internalType": "uint128",
          "name": "numerator",
          "type": "uint128"
        },
        {
          "internalType": "uint128",
          "name": "denominator",
          "type": "uint128"
        }
      ],
      "name": "setMaxTransactionSizePercent",
      "outputs": [],
      "stateMutability": "nonpayable",
      "type": "function"
    },
    {
      "inputs": [
        {
          "internalType": "uint256",
          "name": "_numTokensToSwap",
          "type": "uint256"
        }
      ],
      "name": "setNumTokensToSwap",
      "outputs": [],
      "stateMutability": "nonpayable",
      "type": "function"
    },
    {
      "inputs": [
        {
          "internalType": "uint128",
          "name": "numerator",
          "type": "uint128"
        },
        {
          "internalType": "uint128",
          "name": "denominator",
          "type": "uint128"
        }
      ],
      "name": "setSellAccumulationFee",
      "outputs": [],
      "stateMutability": "nonpayable",
      "type": "function"
    },
    {
      "inputs": [
        {
          "internalType": "uint128",
          "name": "numerator",
          "type": "uint128"
        },
        {
          "internalType": "uint128",
          "name": "denominator",
          "type": "uint128"
        }
      ],
      "name": "setSellAtSmallPriceAccumulationFee",
      "outputs": [],
      "stateMutability": "nonpayable",
      "type": "function"
    },
    {
      "inputs": [
        {
          "internalType": "uint128",
          "name": "numerator",
          "type": "uint128"
        },
        {
          "internalType": "uint128",
          "name": "denominator",
          "type": "uint128"
        }
      ],
      "name": "setSellReflectionFee",
      "outputs": [],
      "stateMutability": "nonpayable",
      "type": "function"
    },
    {
      "inputs": [
        {
          "internalType": "address",
          "name": "",
          "type": "address"
        }
      ],
      "name": "soldPerPeriod",
      "outputs": [
        {
          "internalType": "uint256",
          "name": "",
          "type": "uint256"
        }
      ],
      "stateMutability": "view",
      "type": "function"
    },
    {
      "inputs": [],
      "name": "symbol",
      "outputs": [
        {
          "internalType": "string",
          "name": "",
          "type": "string"
        }
      ],
      "stateMutability": "view",
      "type": "function"
    },
    {
      "inputs": [
        {
          "internalType": "uint256",
          "name": "rAmount",
          "type": "uint256"
        }
      ],
      "name": "tokenFromReflection",
      "outputs": [
        {
          "internalType": "uint256",
          "name": "",
          "type": "uint256"
        }
      ],
      "stateMutability": "view",
      "type": "function"
    },
    {
      "inputs": [],
      "name": "totalBurn",
      "outputs": [
        {
          "internalType": "uint256",
          "name": "",
          "type": "uint256"
        }
      ],
      "stateMutability": "view",
      "type": "function"
    },
    {
      "inputs": [],
      "name": "totalFees",
      "outputs": [
        {
          "internalType": "uint256",
          "name": "",
          "type": "uint256"
        }
      ],
      "stateMutability": "view",
      "type": "function"
    },
    {
      "inputs": [],
      "name": "totalSupply",
      "outputs": [
        {
          "internalType": "uint256",
          "name": "",
          "type": "uint256"
        }
      ],
      "stateMutability": "view",
      "type": "function"
    },
    {
      "inputs": [
        {
          "internalType": "address",
          "name": "recipient",
          "type": "address"
        },
        {
          "internalType": "uint256",
          "name": "amount",
          "type": "uint256"
        }
      ],
      "name": "transfer",
      "outputs": [
        {
          "internalType": "bool",
          "name": "",
          "type": "bool"
        }
      ],
      "stateMutability": "nonpayable",
      "type": "function"
    },
    {
      "inputs": [
        {
          "internalType": "address",
          "name": "sender",
          "type": "address"
        },
        {
          "internalType": "address",
          "name": "recipient",
          "type": "address"
        },
        {
          "internalType": "uint256",
          "name": "amount",
          "type": "uint256"
        }
      ],
      "name": "transferFrom",
      "outputs": [
        {
          "internalType": "bool",
          "name": "",
          "type": "bool"
        }
      ],
      "stateMutability": "nonpayable",
      "type": "function"
    },
    {
      "inputs": [
        {
          "internalType": "address",
          "name": "newOwner",
          "type": "address"
        }
      ],
      "name": "transferOwnership",
      "outputs": [],
      "stateMutability": "nonpayable",
      "type": "function"
    },
    {
      "inputs": [],
      "name": "uniswapV2Pair",
      "outputs": [
        {
          "internalType": "contract IUniswapV2Pair",
          "name": "",
          "type": "address"
        }
      ],
      "stateMutability": "view",
      "type": "function"
    }
  ],
  "transactionHash": "0x68859bfe1cf7b9cc97cd5b10db0ca3508668960b935af9430fb0d7614e91b59a",
  "args": [],
  "solcInputHash": "159d2484a4d183a28d3a422c30be69ae",
  "bytecode": "0x6080604052600c805461ff0019169055620000296006606462000427602090811b6200217e17901c565b8051600d80546020938401516001600160801b03199182166001600160801b03948516178416600160801b91851682021792839055600e8054848616931692909217841692819004909316909202179055620000949060159060649062000427811b6200217e17901c565b8051600f80546020938401516001600160801b03199182166001600160801b03948516178416600160801b9185168202179283905560108054848616931692909217841692819004909316909202179055620000ff9060049060649062000427811b6200217e17901c565b8051601180546020938401516001600160801b03199182166001600160801b03948516178416600160801b91851682021792839055601280548486169316929092178416928190049093169092021790556200016a9060049060649062000427811b6200217e17901c565b8051601380546020938401516001600160801b03199182166001600160801b03948516178416600160801b9185168202179283905560148054848616931692909217841692819004909316909202179055620001d6906005906127109062000427811b6200217e17901c565b8051601d80546020909301516001600160801b03908116600160801b029281166001600160801b0319909416939093179092161790553480156200021957600080fd5b50604051806040016040528060078152602001664c65646769747960c81b815250604051806040016040528060038152602001624c545960e81b8152506b08eb04bbcd9161efc8000000600062000275620004bf60201b60201c565b600080546001600160a01b0319166001600160a01b0383169081178255604051929350917f8be0079c531659141344cd1fd0a4f28419497f9722a3daafe3b4186f6b6457e0908290a3508251620002d490600990602086019062000cee565b508151620002ea90600a90602085019062000cee565b506006819055600019818181620002fd57fe5b06810360078190556001600062000313620004bf565b6001600160a01b0316815260208101919091526040016000205562000337620004bf565b6001600160a01b031660006001600160a01b03167fddf252ad1be2c89b69c2b068fc378daa952ba7f163c4a11628f55a4df523b3ef6006546040518082815260200191505060405180910390a350505050620003cd612710620003b9600f620003a5620004c360201b60201c565b620004c960201b6200220f1790919060201c565b6200052e60201b620022681790919060201c565b600b55620003e6620003de62000578565b600162000587565b620003f330600162000587565b620004096200040162000578565b60016200062d565b620004163060016200062d565b6200042130620006c6565b62000da1565b6200043162000d73565b816001600160801b0316836001600160801b0316111562000499576040805162461bcd60e51b815260206004820152601b60248201527f50657263656e743a20696e76616c69642070657263656e746167650000000000604482015290519081900360640190fd5b50604080518082019091526001600160801b038084168252821660208201525b92915050565b3390565b60065490565b600082620004da57506000620004b9565b82820282848281620004e857fe5b0414620005275760405162461bcd60e51b8152600401808060200182810382526021815260200180620044256021913960400191505060405180910390fd5b9392505050565b60006200052783836040518060400160405280601a81526020017f536166654d6174683a206469766973696f6e206279207a65726f0000000000008152506200083f60201b60201c565b6000546001600160a01b031690565b62000591620004bf565b6000546001600160a01b03908116911614620005e3576040805162461bcd60e51b8152602060048201819052602482015260008051602062004446833981519152604482015290519081900360640190fd5b80156200060c5762000605826017620008e660201b620022aa1790919060201c565b5062000629565b620006278260176200095860201b6200231a1790919060201c565b505b5050565b62000637620004bf565b6000546001600160a01b0390811691161462000689576040805162461bcd60e51b8152602060048201819052602482015260008051602062004446833981519152604482015290519081900360640190fd5b8015620006ab5762000605826019620008e660201b620022aa1790919060201c565b620006278260196200095860201b6200231a1790919060201c565b620006d0620004bf565b6000546001600160a01b0390811691161462000722576040805162461bcd60e51b8152602060048201819052602482015260008051602062004446833981519152604482015290519081900360640190fd5b6001600160a01b03811660009081526004602052604090205460ff16156200077c5760405162461bcd60e51b8152600401808060200182810382526029815260200180620043fc6029913960400191505060405180910390fd5b6001600160a01b03811660009081526001602052604090205415620007d9576001600160a01b038116600090815260016020526040902054620007bf9062000a93565b6001600160a01b0382166000908152600260205260409020555b6001600160a01b03166000818152600460205260408120805460ff191660019081179091556005805491820181559091527f036b6384b5eca791c62761152d0c79bb0604c104a5fb6f4eb0703f3154bb3db00180546001600160a01b0319169091179055565b60008183620008cf5760405162461bcd60e51b81526004018080602001828103825283818151815260200191508051906020019080838360005b838110156200089357818101518382015260200162000879565b50505050905090810190601f168015620008c15780820380516001836020036101000a031916815260200191505b509250505060405180910390fd5b506000838581620008dc57fe5b0495945050505050565b6001600160a01b0381166000908152600183016020526040812054156200091057506000620004b9565b508154600180820184556000848152602080822090930180546001600160a01b0319166001600160a01b03959095169485179055845493815293810190915260409092205590565b6001600160a01b03811660009081526001830160205260408120546200098157506000620004b9565b6001600160a01b03821660009081526001840160208190526040822054855490926000198201928492909190889085908110620009ba57fe5b60009182526020808320909101546001600160a01b03908116845283820194909452604092830182209490945591871682526001880190925290812055845485908290811062000a0657fe5b60009182526020909120015485546001600160a01b03909116908690600019850190811062000a3157fe5b600091825260209091200180546001600160a01b0319166001600160a01b0392909216919091179055845485908062000a6657fe5b600082815260209020600019908201810180546001600160a01b0319169055019055506001949350505050565b600060075482111562000ad85760405162461bcd60e51b8152600401808060200182810382526038815260200180620043c46038913960400191505060405180910390fd5b600062000ae462000b00565b90506200052781846200052e60201b620022681790919060201c565b6000808062000b0e62000b33565b9150915062000b2c81836200052e60201b620022681790919060201c565b9250505090565b60075460065460055460009283929091835b8181101562000c025760006005828154811062000b5e57fe5b60009182526020808320909101546001600160a01b031680835260018252604080842054600290935290922054919250908682118062000b9d57508581115b1562000bba57600754600654985098505050505050505062000c43565b62000bd4828862000c4760201b6200244f1790919060201c565b965062000bf0818762000c4760201b6200244f1790919060201c565b9550506001909201915062000b459050565b5062000c216006546007546200052e60201b620022681790919060201c565b83101562000c3c576007546006549450945050505062000c43565b5090925090505b9091565b60006200052783836040518060400160405280601e81526020017f536166654d6174683a207375627472616374696f6e206f766572666c6f77000081525062000c9160201b60201c565b6000818484111562000ce65760405162461bcd60e51b81526020600482018181528351602484015283519092839260449091019190850190808383600083156200089357818101518382015260200162000879565b505050900390565b828054600181600116156101000203166002900490600052602060002090601f016020900481019282601f1062000d3157805160ff191683800117855562000d61565b8280016001018555821562000d61579182015b8281111562000d6157825182559160200191906001019062000d44565b5062000d6f92915062000d8a565b5090565b604080518082019091526000808252602082015290565b5b8082111562000d6f576000815560010162000d8b565b6136138062000db16000396000f3fe608060405234801561001057600080fd5b50600436106103c55760003560e01c80636042f719116101ff578063aea1f8031161011a578063e9d4eacc116100ad578063f2fde38b1161007c578063f2fde38b14610aef578063f84354f114610b15578063f8d5d46914610b3b578063fda493c914610b43576103c5565b8063e9d4eacc14610a73578063ec276f8514610a93578063ec9c273514610ac1578063f2cc0c1814610ac9576103c5565b8063cba0e996116100e9578063cba0e996146109ee578063cd3293de14610a14578063dd62ed3e14610a1c578063de53fcd514610a4a576103c5565b8063aea1f80314610982578063baa97acc146109b0578063be1c414c146109de578063c3574525146109e6576103c5565b80638da5cb5b116101925780639f4ba0ee116101615780639f4ba0ee146108e7578063a457c2d714610904578063a9059cbb14610930578063addb0cb71461095c576103c5565b80638da5cb5b146108a957806394a1404a146108b157806395d89b41146108d75780639badc365146108df576103c5565b80637337c7a6116101ce5780637337c7a61461083d57806383f74ba714610845578063887944431461084d5780638c71072e1461087b576103c5565b80636042f719146107e157806360ba1c3e146107e957806370a082311461080f578063715018a614610835576103c5565b80632993da12116102ef57806342966c6811610282578063504d275111610251578063504d27511461075f578063548743c81461078d5780635cce86cd146107955780635f91331e146107bb576103c5565b806342966c68146106e75780634549b0391461070457806349bd5a5e146107295780634ab9c15e14610731576103c5565b8063342e11af116102be578063342e11af14610635578063395093511461068d5780633c11e12a146106b95780633c9f861d146106df576103c5565b80632993da12146105cc5780632d838119146105f2578063311028af1461060f578063313ce56714610617576103c5565b806318160ddd1161036757806323b872dd1161033657806323b872dd146105625780632630c12f1461059857806327345b1b146105bc57806328b13b61146105c4576103c5565b806318160ddd146105135780631b8676f51461051b5780631d0806ae14610552578063220f66961461055a576103c5565b8063095ea7b3116103a3578063095ea7b3146104805780630e6d2f0b146104c05780630f569dad146104ee57806313114a9d1461050b576103c5565b806301a6c43b146103ca578063053ab182146103e457806306fdde0314610403575b600080fd5b6103d2610b4b565b60408051918252519081900360200190f35b610401600480360360208110156103fa57600080fd5b5035610b51565b005b61040b610c30565b6040805160208082528351818301528351919283929083019185019080838360005b8381101561044557818101518382015260200161042d565b50505050905090810190601f1680156104725780820380516001836020036101000a031916815260200191505b509250505060405180910390f35b6104ac6004803603604081101561049657600080fd5b506001600160a01b038135169060200135610cc7565b604080519115158252519081900360200190f35b610401600480360360408110156104d657600080fd5b506001600160801b0381358116916020013516610ce5565b6104016004803603602081101561050457600080fd5b5035610e08565b6103d2610e65565b6103d2610e6b565b610523610e71565b60405180836001600160801b03168152602001826001600160801b031681526020019250505060405180910390f35b6103d2610e8b565b6104ac610e91565b6104ac6004803603606081101561057857600080fd5b506001600160a01b03813581169160208101359091169060400135610e9a565b6105a0610f22565b604080516001600160a01b039092168252519081900360200190f35b610523610f31565b6103d2610f4b565b610401600480360360208110156105e257600080fd5b50356001600160a01b0316610f8b565b6103d26004803603602081101561060857600080fd5b50356110e5565b6103d2611147565b61061f611157565b6040805160ff9092168252519081900360200190f35b61063d61115c565b60408051602080825283518183015283519192839290830191858101910280838360005b83811015610679578181015183820152602001610661565b505050509050019250505060405180910390f35b6104ac600480360360408110156106a357600080fd5b506001600160a01b0381351690602001356111c0565b6104ac600480360360208110156106cf57600080fd5b50356001600160a01b031661120e565b6103d261121b565b6104ac600480360360208110156106fd57600080fd5b5035611238565b6103d26004803603604081101561071a57600080fd5b50803590602001351515611253565b6105a06112e5565b6104016004803603604081101561074757600080fd5b506001600160801b03813581169160200135166112f4565b6104016004803603604081101561077557600080fd5b506001600160801b03813581169160200135166113ca565b610523611466565b6104ac600480360360208110156107ab57600080fd5b50356001600160a01b0316611480565b6103d2600480360360208110156107d157600080fd5b50356001600160a01b031661148d565b61052361149f565b6104ac600480360360208110156107ff57600080fd5b50356001600160a01b03166114b9565b6103d26004803603602081101561082557600080fd5b50356001600160a01b03166114c6565b610401611528565b6105236115ca565b6105236115e4565b6104016004803603604081101561086357600080fd5b506001600160a01b03813516906020013515156115fe565b6104016004803603604081101561089157600080fd5b506001600160a01b038135169060200135151561167d565b6105a06116f1565b610401600480360360208110156108c757600080fd5b50356001600160a01b0316611700565b61040b61177a565b61063d6117db565b610401600480360360208110156108fd57600080fd5b503561183b565b6104ac6004803603604081101561091a57600080fd5b506001600160a01b038135169060200135611898565b6104ac6004803603604081101561094657600080fd5b506001600160a01b038135169060200135611900565b6103d26004803603602081101561097257600080fd5b50356001600160a01b0316611914565b6104016004803603604081101561099857600080fd5b506001600160801b0381358116916020013516611926565b610401600480360360408110156109c657600080fd5b506001600160801b03813581169160200135166119fc565b610523611ad2565b610523611aec565b6104ac60048036036020811015610a0457600080fd5b50356001600160a01b0316611b06565b6105a0611b24565b6103d260048036036040811015610a3257600080fd5b506001600160a01b0381358116916020013516611b33565b610a52611b5e565b60405180826001811115610a6257fe5b815260200191505060405180910390f35b61040160048036036020811015610a8957600080fd5b503560ff16611b6c565b61040160048036036040811015610aa957600080fd5b506001600160a01b0381351690602001351515611be7565b610523611c8f565b61040160048036036020811015610adf57600080fd5b50356001600160a01b0316611ca9565b61040160048036036020811015610b0557600080fd5b50356001600160a01b0316611e19565b61040160048036036020811015610b2b57600080fd5b50356001600160a01b0316611f11565b61063d6120b8565b61063d61211b565b600b5481565b6000610b5b612491565b6001600160a01b03811660009081526004602052604090205490915060ff1615610bb65760405162461bcd60e51b815260040180806020018281038252603a8152602001806135a4603a913960400191505060405180910390fd5b6000610bc482600085612495565b5050506001600160a01b038616600090815260016020526040902054939450610bf29392508491505061244f565b6001600160a01b038316600090815260016020526040902055600754610c18908261244f565b600755600854610c2890846124f7565b600855505050565b60098054604080516020601f6002600019610100600188161502019095169490940493840181900481028201810190925282815260609390929091830182828015610cbc5780601f10610c9157610100808354040283529160200191610cbc565b820191906000526020600020905b815481529060010190602001808311610c9f57829003601f168201915b505050505090505b90565b6000610cdb610cd4612491565b8484612551565b5060015b92915050565b610ced612491565b6000546001600160a01b03908116911614610d3d576040805162461bcd60e51b81526020600482018190526024820152600080516020613503833981519152604482015290519081900360640190fd5b610d47828261217e565b8051600d80546020938401516001600160801b03199091166001600160801b03938416178316600160801b91841682021791829055604080518082018252600e548086168252839004851681870152815180830190925283851682529190920490921692810192909252610dbb919061263d565b610e04576040805162461bcd60e51b8152602060048201526015602482015274098cac8ced2e8f27440cccaca40e8dede40d0d2ced605b1b604482015290519081900360640190fd5b5050565b610e10612491565b6000546001600160a01b03908116911614610e60576040805162461bcd60e51b81526020600482018190526024820152600080516020613503833981519152604482015290519081900360640190fd5b600b55565b60085490565b60065490565b600e546001600160801b0380821691600160801b90041682565b60215481565b600c5460ff1681565b6000610ea7848484612683565b610f1784610eb3612491565b610f12856040518060600160405280602f8152602001613575602f91396001600160a01b038a16600090815260036020526040812090610ef1612491565b6001600160a01b03168152602081019190915260400160002054919061282f565b612551565b5060015b9392505050565b6020546001600160a01b031681565b6012546001600160801b0380821691600160801b90041682565b6000610f86610f58610e6b565b60408051808201909152601d546001600160801b038082168352600160801b909104166020820152906128c6565b905090565b610f93612491565b6000546001600160a01b03908116911614610fe3576040805162461bcd60e51b81526020600482018190526024820152600080516020613503833981519152604482015290519081900360640190fd5b601f80546001600160a01b0319166001600160a01b0383811691909117918290556110109116600161167d565b601f54611027906001600160a01b031660016115fe565b601f5461103c906001600160a01b0316611ca9565b601f60009054906101000a90046001600160a01b03166001600160a01b03166349bd5a5e6040518163ffffffff1660e01b8152600401602060405180830381600087803b15801561108c57600080fd5b505af11580156110a0573d6000803e3d6000fd5b505050506040513d60208110156110b657600080fd5b5051601e80546001600160a01b0319166001600160a01b0392831617908190556110e291166001611be7565b50565b60006007548211156111285760405162461bcd60e51b81526004018080602001828103825260388152602001806133186038913960400191505060405180910390fd5b60006111326128ff565b905061113e8382612268565b9150505b919050565b6b08eb04bbcd9161efc800000081565b601290565b60606017600001805480602002602001604051908101604052809291908181526020018280548015610cbc57602002820191906000526020600020905b81546001600160a01b03168152600190910190602001808311611199575050505050905090565b6000610cdb6111cd612491565b84610f1285600360006111de612491565b6001600160a01b03908116825260208083019390935260409182016000908120918c1681529252902054906124f7565b6000610cdf601583612922565b6000611225610e6b565b6b08eb04bbcd9161efc800000003905090565b600061124b611245612491565b83612943565b506001919050565b60006006548311156112965760405162461bcd60e51b815260040180806020018281038252602d8152602001806133fc602d913960400191505060405180910390fd5b60006112a0612491565b9050826112c65760006112b582600087612495565b50949750610cdf9650505050505050565b60006112d482600087612495565b50939750610cdf9650505050505050565b601e546001600160a01b031681565b6112fc612491565b6000546001600160a01b0390811691161461134c576040805162461bcd60e51b81526020600482018190526024820152600080516020613503833981519152604482015290519081900360640190fd5b611356828261217e565b8051601380546020938401516001600160801b03199091166001600160801b03938416178316600160801b918416820217918290556040805180820182526014548086168252839004851681870152815180830190925283851682529190920490921692810192909252610dbb919061263d565b6113d2612491565b6000546001600160a01b03908116911614611422576040805162461bcd60e51b81526020600482018190526024820152600080516020613503833981519152604482015290519081900360640190fd5b61142c828261217e565b8051601d80546020909301516001600160801b03908116600160801b029281166001600160801b0319909416939093179092161790555050565b6014546001600160801b0380821691600160801b90041682565b6000610cdf601983612922565b601c6020526000908152604090205481565b6011546001600160801b0380821691600160801b90041682565b6000610cdf601783612922565b6001600160a01b03811660009081526004602052604081205460ff161561150657506001600160a01b038116600090815260026020526040902054611142565b6001600160a01b038216600090815260016020526040902054610cdf906110e5565b611530612491565b6000546001600160a01b03908116911614611580576040805162461bcd60e51b81526020600482018190526024820152600080516020613503833981519152604482015290519081900360640190fd5b600080546040516001600160a01b03909116907f8be0079c531659141344cd1fd0a4f28419497f9722a3daafe3b4186f6b6457e0908390a3600080546001600160a01b0319169055565b6013546001600160801b0380821691600160801b90041682565b6010546001600160801b0380821691600160801b90041682565b611606612491565b6000546001600160a01b03908116911614611656576040805162461bcd60e51b81526020600482018190526024820152600080516020613503833981519152604482015290519081900360640190fd5b801561166d576116676019836122aa565b50610e04565b61167860198361231a565b505050565b611685612491565b6000546001600160a01b039081169116146116d5576040805162461bcd60e51b81526020600482018190526024820152600080516020613503833981519152604482015290519081900360640190fd5b80156116e6576116676017836122aa565b61167860178361231a565b6000546001600160a01b031690565b611708612491565b6000546001600160a01b03908116911614611758576040805162461bcd60e51b81526020600482018190526024820152600080516020613503833981519152604482015290519081900360640190fd5b602080546001600160a01b0319166001600160a01b0392909216919091179055565b600a8054604080516020601f6002600019610100600188161502019095169490940493840181900481028201810190925282815260609390929091830182828015610cbc5780601f10610c9157610100808354040283529160200191610cbc565b60606005805480602002602001604051908101604052809291908181526020018280548015610cbc576020028201919060005260206000209081546001600160a01b03168152600190910190602001808311611199575050505050905090565b611843612491565b6000546001600160a01b03908116911614611893576040805162461bcd60e51b81526020600482018190526024820152600080516020613503833981519152604482015290519081900360640190fd5b602155565b6000610cdb6118a5612491565b84610f12856040518060600160405280602c81526020016134ad602c9139600360006118cf612491565b6001600160a01b03908116825260208083019390935260409182016000908120918d1681529252902054919061282f565b6000610cdb61190d612491565b8484612683565b601b6020526000908152604090205481565b61192e612491565b6000546001600160a01b0390811691161461197e576040805162461bcd60e51b81526020600482018190526024820152600080516020613503833981519152604482015290519081900360640190fd5b611988828261217e565b8051601180546020938401516001600160801b03199091166001600160801b03938416178316600160801b918416820217918290556040805180820182526012548086168252839004851681870152815180830190925283851682529190920490921692810192909252610dbb919061263d565b611a04612491565b6000546001600160a01b03908116911614611a54576040805162461bcd60e51b81526020600482018190526024820152600080516020613503833981519152604482015290519081900360640190fd5b611a5e828261217e565b8051600f80546020938401516001600160801b03199091166001600160801b03938416178316600160801b918416820217918290556040805180820182526010548086168252839004851681870152815180830190925283851682529190920490921692810192909252610dbb919061263d565b600d546001600160801b0380821691600160801b90041682565b601d546001600160801b0380821691600160801b90041682565b6001600160a01b031660009081526004602052604090205460ff1690565b601f546001600160a01b031681565b6001600160a01b03918216600090815260036020908152604080832093909416825291909152205490565b600c54610100900460ff1681565b611b74612491565b6000546001600160a01b03908116911614611bc4576040805162461bcd60e51b81526020600482018190526024820152600080516020613503833981519152604482015290519081900360640190fd5b600c805482919061ff001916610100836001811115611bdf57fe5b021790555050565b611bef612491565b6000546001600160a01b03908116911614611c3f576040805162461bcd60e51b81526020600482018190526024820152600080516020613503833981519152604482015290519081900360640190fd5b8015611c6c57611c506015836122aa565b50611c5a82611b06565b611c6757611c6782611ca9565b610e04565b611c7760158361231a565b50611c8182611b06565b15610e0457610e0482611f11565b600f546001600160801b0380821691600160801b90041682565b611cb1612491565b6000546001600160a01b03908116911614611d01576040805162461bcd60e51b81526020600482018190526024820152600080516020613503833981519152604482015290519081900360640190fd5b6001600160a01b03811660009081526004602052604090205460ff1615611d595760405162461bcd60e51b81526004018080602001828103825260298152602001806133d36029913960400191505060405180910390fd5b6001600160a01b03811660009081526001602052604090205415611db3576001600160a01b038116600090815260016020526040902054611d99906110e5565b6001600160a01b0382166000908152600260205260409020555b6001600160a01b03166000818152600460205260408120805460ff191660019081179091556005805491820181559091527f036b6384b5eca791c62761152d0c79bb0604c104a5fb6f4eb0703f3154bb3db00180546001600160a01b0319169091179055565b611e21612491565b6000546001600160a01b03908116911614611e71576040805162461bcd60e51b81526020600482018190526024820152600080516020613503833981519152604482015290519081900360640190fd5b6001600160a01b038116611eb65760405162461bcd60e51b81526004018080602001828103825260268152602001806133506026913960400191505060405180910390fd5b600080546040516001600160a01b03808516939216917f8be0079c531659141344cd1fd0a4f28419497f9722a3daafe3b4186f6b6457e091a3600080546001600160a01b0319166001600160a01b0392909216919091179055565b611f19612491565b6000546001600160a01b03908116911614611f69576040805162461bcd60e51b81526020600482018190526024820152600080516020613503833981519152604482015290519081900360640190fd5b6001600160a01b03811660009081526004602052604090205460ff16611fc05760405162461bcd60e51b81526004018080602001828103825260298152602001806135236029913960400191505060405180910390fd5b60005b600554811015610e0457816001600160a01b031660058281548110611fe457fe5b6000918252602090912001546001600160a01b031614156120b05760058054600019810190811061201157fe5b600091825260209091200154600580546001600160a01b03909216918390811061203757fe5b600091825260208083209190910180546001600160a01b0319166001600160a01b039485161790559184168152600282526040808220829055600490925220805460ff19169055600580548061208957fe5b600082815260209020810160001990810180546001600160a01b0319169055019055610e04565b600101611fc3565b60606019600001805480602002602001604051908101604052809291908181526020018280548015610cbc576020028201919060005260206000209081546001600160a01b03168152600190910190602001808311611199575050505050905090565b60606015600001805480602002602001604051908101604052809291908181526020018280548015610cbc576020028201919060005260206000209081546001600160a01b03168152600190910190602001808311611199575050505050905090565b612186613300565b816001600160801b0316836001600160801b031611156121ed576040805162461bcd60e51b815260206004820152601b60248201527f50657263656e743a20696e76616c69642070657263656e746167650000000000604482015290519081900360640190fd5b50604080518082019091526001600160801b0392831681529116602082015290565b60008261221e57506000610cdf565b8282028284828161222b57fe5b0414610f1b5760405162461bcd60e51b81526004018080602001828103825260218152602001806134606021913960400191505060405180910390fd5b6000610f1b83836040518060400160405280601a81526020017f536166654d6174683a206469766973696f6e206279207a65726f000000000000815250612a89565b6001600160a01b0381166000908152600183016020526040812054156122d257506000610cdf565b508154600180820184556000848152602080822090930180546001600160a01b0319166001600160a01b03959095169485179055845493815293810190915260409092205590565b6001600160a01b038116600090815260018301602052604081205461234157506000610cdf565b6001600160a01b0382166000908152600184016020819052604082205485549092600019820192849290919088908590811061237957fe5b60009182526020808320909101546001600160a01b0390811684528382019490945260409283018220949094559187168252600188019092529081205584548590829081106123c457fe5b60009182526020909120015485546001600160a01b0390911690869060001985019081106123ee57fe5b600091825260209091200180546001600160a01b0319166001600160a01b0392909216919091179055845485908061242257fe5b600082815260209020600019908201810180546001600160a01b0319169055019055506001949350505050565b6000610f1b83836040518060400160405280601e81526020017f536166654d6174683a207375627472616374696f6e206f766572666c6f77000081525061282f565b3390565b6000806000806000806000806000806124af8d8d8d612aee565b9250925092506000806000806124c68f8787612b36565b9350935093509350838383838a8a8a9d509d509d509d509d509d509d50505050505050509397509397509397909450565b600082820183811015610f1b576040805162461bcd60e51b815260206004820152601b60248201527f536166654d6174683a206164646974696f6e206f766572666c6f770000000000604482015290519081900360640190fd5b6001600160a01b0383166125965760405162461bcd60e51b815260040180806020018281038252602b8152602001806133a8602b913960400191505060405180910390fd5b6001600160a01b0382166125db5760405162461bcd60e51b815260040180806020018281038252602981526020018061354c6029913960400191505060405180910390fd5b6001600160a01b03808416600081815260036020908152604080832094871680845294825291829020859055815185815291517f8c5be1e5ebec7d5bd14f71427d1e84f3dd0314c0f7b2291e5b200ac8c7c3b9259281900390910190a3505050565b6020820151815160009161265d916001600160801b03908116911661220f565b6020830151845161267a916001600160801b03918216911661220f565b11159392505050565b61268c83611480565b15801561269d575061269d8261120e565b15612745576001600160a01b0383166000908152601c6020526040812054610258906126ca90429061244f565b11156126f0576001600160a01b0384166000908152601c6020526040902042905561270b565b506001600160a01b0383166000908152601b60205260409020545b61271581836124f7565b905061271f610f4b565b81111561272b57600080fd5b6001600160a01b0384166000908152601b60205260409020555b6020546001600160a01b0316156127c5576020805460408051630c88b75360e01b815290516001600160a01b0390921692630c88b753926004808401938290030181600087803b15801561279857600080fd5b505af11580156127ac573d6000803e3d6000fd5b505050506040513d60208110156127c257600080fd5b50505b60006127d0306114c6565b600b549091508082108015906127e95750600c5460ff16155b80156128035750601e546001600160a01b03868116911614155b1561281d5780821115612814578091505b61281d82612b96565b612828858585612d08565b5050505050565b600081848411156128be5760405162461bcd60e51b81526004018080602001828103825283818151815260200191508051906020019080838360005b8381101561288357818101518382015260200161286b565b50505050905090810190601f1680156128b05780820380516001836020036101000a031916815260200191505b509250505060405180910390fd5b505050900390565b6000610f1b83602001516001600160801b03166128f985600001516001600160801b03168561220f90919063ffffffff16565b90612268565b600080600061290c612f9b565b909250905061291b8282612268565b9250505090565b6001600160a01b031660009081526001919091016020526040902054151590565b60006129576129506128ff565b839061220f565b905061299681604051806060016040528060328152602001613376603291396001600160a01b038616600090815260016020526040902054919061282f565b6001600160a01b03841660009081526001602090815260408083209390935560049052205460ff1615612a1a57612a0082604051806060016040528060328152602001613376603291396001600160a01b038616600090815260026020526040902054919061282f565b6001600160a01b0384166000908152600260205260409020555b600754612a27908261244f565b600755600654612a37908361244f565b6006556000612a44612491565b6001600160a01b03167fddf252ad1be2c89b69c2b068fc378daa952ba7f163c4a11628f55a4df523b3ef846040518082815260200191505060405180910390a3505050565b60008183612ad85760405162461bcd60e51b815260206004820181815283516024840152835190928392604490910191908501908083836000831561288357818101518382015260200161286b565b506000838581612ae457fe5b0495945050505050565b600080600080612aff878787613078565b90506000612b0e8888886130dd565b90506000612b2682612b20898661244f565b9061244f565b9992985090965090945050505050565b6000806000806000612b466128ff565b90506000612b54898361220f565b90506000612b62898461220f565b90506000612b70898561220f565b90506000612b8282612b20868661244f565b939c939b5091995097509095505050505050565b600c805460ff19166001179055601f54612bbb9030906001600160a01b031683612683565b6000600c54610100900460ff166001811115612bd357fe5b1415612c4357601f546040805163173865ad60e01b81526004810184905290516001600160a01b039092169163173865ad9160248082019260009290919082900301818387803b158015612c2657600080fd5b505af1158015612c3a573d6000803e3d6000fd5b50505050612cfb565b6001600c54610100900460ff166001811115612c5b57fe5b1415612cae57601f546040805163255f796d60e21b81526004810184905290516001600160a01b039092169163957de5b49160248082019260009290919082900301818387803b158015612c2657600080fd5b6040805162461bcd60e51b815260206004820152601f60248201527f4c6564676974793a20696e76616c69642066656544657374696e6174696f6e00604482015290519081900360640190fd5b50600c805460ff19169055565b6001600160a01b038316612d4d5760405162461bcd60e51b815260040180806020018281038252602c815260200180613481602c913960400191505060405180910390fd5b6001600160a01b038216612d925760405162461bcd60e51b815260040180806020018281038252602a8152602001806134d9602a913960400191505060405180910390fd5b60008111612dd15760405162461bcd60e51b81526004018080602001828103825260378152602001806134296037913960400191505060405180910390fd5b6000806000806000806000612de78a8a8a612495565b9650965096509650965096509650612e2d87600160008d6001600160a01b03166001600160a01b031681526020019081526020016000205461244f90919063ffffffff16565b6001600160a01b038b1660009081526001602090815260408083209390935560049052205460ff1615612e97576001600160a01b038a16600090815260026020526040902054612e7d908961244f565b6001600160a01b038b166000908152600260205260409020555b6001600160a01b038916600090815260016020526040902054612eba90876124f7565b6001600160a01b038a1660009081526001602090815260408083209390935560049052205460ff1615612f24576001600160a01b038916600090815260026020526040902054612f0a90846124f7565b6001600160a01b038a166000908152600260205260409020555b8115612f3457612f3485836131d0565b8015612f4457612f4484826131f4565b886001600160a01b03168a6001600160a01b03167fddf252ad1be2c89b69c2b068fc378daa952ba7f163c4a11628f55a4df523b3ef856040518082815260200191505060405180910390a350505050505050505050565b60075460065460055460009283929091835b8181101561304457600060058281548110612fc457fe5b60009182526020808320909101546001600160a01b031680835260018252604080842054600290935290922054919250908682118061300257508581115b1561301d576007546006549850985050505050505050613074565b613027878361244f565b9650613033868261244f565b95505060019092019150612fad9050565b5060065460075461305491612268565b83101561306d5760075460065494509450505050613074565b5090925090505b9091565b60006130838361120e565b80156130955750613093846114b9565b155b156130d357604080518082019091526011546001600160801b038082168352600160801b9091041660208201526130cc90836128c6565b9050610f1b565b5060009392505050565b60006130e88461120e565b80156130fa57506130f8836114b9565b155b1561313157604080518082019091526013546001600160801b038082168352600160801b9091041660208201526130cc90836128c6565b61313a8361120e565b801561314c575061314a846114b9565b155b156130d35760215461315f90600a61220f565b613167613260565b1061319e5760408051808201909152600d546001600160801b038082168352600160801b9091041660208201526130cc90836128c6565b60408051808201909152600f546001600160801b038082168352600160801b9091041660208201526130cc90836128c6565b6007546131dd908361244f565b6007556008546131ed90826124f7565b6008555050565b3060009081526001602052604090205461320e90836124f7565b3060009081526001602090815260408083209390935560049052205460ff1615610e04573060009081526002602052604090205461324c90826124f7565b306000908152600260205260409020555050565b6020546000906001600160a01b031661327b57506000610cc4565b6020805460408051633ddac95360e01b8152306004820152670de0b6b3a7640000602482015290516001600160a01b0390921692633ddac95392604480840193829003018186803b1580156132cf57600080fd5b505afa1580156132e3573d6000803e3d6000fd5b505050506040513d60208110156132f957600080fd5b5051905090565b60408051808201909152600080825260208201529056fe5265666c656374546f6b656e3a20616d6f756e74206d757374206265206c657373207468616e20746f74616c207265666c656374696f6e734f776e61626c653a206e6577206f776e657220697320746865207a65726f20616464726573735265666c656374546f6b656e3a206275726e20616d6f756e74206973206d6f7265207468616e207468652062616c616e63655265666c656374546f6b656e3a20617070726f76652066726f6d20746865207a65726f20616464726573735265666c656374546f6b656e3a206163636f756e7420697320616c7265616479206578636c756465645265666c656374546f6b656e3a20616d6f756e74206d757374206265206c657373207468616e20737570706c795265666c656374546f6b656e3a207472616e7366657220616d6f756e74206d7573742062652067726561746572207468616e207a65726f536166654d6174683a206d756c7469706c69636174696f6e206f766572666c6f775265666c656374546f6b656e3a207472616e736665722066726f6d20746865207a65726f20616464726573735265666c656374546f6b656e3a2064656372656173656420616c6c6f77616e63652062656c6f77207a65726f5265666c656374546f6b656e3a207472616e7366657220746f20746865207a65726f20616464726573734f776e61626c653a2063616c6c6572206973206e6f7420746865206f776e65725265666c656374546f6b656e3a206163636f756e7420697320616c726561647920696e636c756465645265666c656374546f6b656e3a20617070726f766520746f20746865207a65726f20616464726573735265666c656374546f6b656e3a207472616e7366657220616d6f756e74206578636565647320616c6c6f77616e63655265666c656374546f6b656e3a206578636c75646564206164647265737365732063616e6e6f742063616c6c20746869732066756e6374696f6ea2646970667358221220a3c43d27e7de4059909e2cdf3b9db6036ec4f92d0fafa8781298649e2366dd1a64736f6c634300060c00335265666c656374546f6b656e3a20616d6f756e74206d757374206265206c657373207468616e20746f74616c207265666c656374696f6e735265666c656374546f6b656e3a206163636f756e7420697320616c7265616479206578636c75646564536166654d6174683a206d756c7469706c69636174696f6e206f766572666c6f774f776e61626c653a2063616c6c6572206973206e6f7420746865206f776e6572",
  "devdoc": {
    "kind": "dev",
    "methods": {
      "allowance(address,address)": {
        "details": "Returns the remaining number of tokens that `spender` will be allowed to spend on behalf of `owner` through {transferFrom}. This is zero by default. This value changes when {approve} or {transferFrom} are called."
      },
      "approve(address,uint256)": {
        "details": "Sets `amount` as the allowance of `spender` over the caller's tokens. Returns a boolean value indicating whether the operation succeeded. IMPORTANT: Beware that changing an allowance with this method brings the risk that someone may use both the old and the new allowance by unfortunate transaction ordering. One possible solution to mitigate this race condition is to first reduce the spender's allowance to 0 and set the desired value afterwards: https://github.com/ethereum/EIPs/issues/20#issuecomment-263524729 Emits an {Approval} event."
      },
      "balanceOf(address)": {
        "details": "Returns the amount of tokens owned by `account`."
      },
      "owner()": {
        "details": "Returns the address of the current owner."
      },
      "renounceOwnership()": {
        "details": "Leaves the contract without owner. It will not be possible to call `onlyOwner` functions anymore. Can only be called by the current owner. NOTE: Renouncing ownership will leave the contract without an owner, thereby removing any functionality that is only available to the owner."
      },
      "totalSupply()": {
        "details": "Returns the amount of tokens in existence."
      },
      "transfer(address,uint256)": {
        "details": "Moves `amount` tokens from the caller's account to `recipient`. Returns a boolean value indicating whether the operation succeeded. Emits a {Transfer} event."
      },
      "transferFrom(address,address,uint256)": {
        "details": "Moves `amount` tokens from `sender` to `recipient` using the allowance mechanism. `amount` is then deducted from the caller's allowance. Returns a boolean value indicating whether the operation succeeded. Emits a {Transfer} event."
      },
      "transferOwnership(address)": {
        "details": "Transfers ownership of the contract to a new account (`newOwner`). Can only be called by the current owner."
      }
    },
    "version": 1
  },
  "userdoc": {
    "kind": "user",
    "methods": {},
    "version": 1
  },
  "storageLayout": {
    "storage": [
      {
        "astId": 4603,
        "contract": "contracts/Ledgity.sol:Ledgity",
        "label": "_owner",
        "offset": 0,
        "slot": "0",
        "type": "t_address"
      },
      {
        "astId": 4813,
        "contract": "contracts/Ledgity.sol:Ledgity",
        "label": "_rOwned",
        "offset": 0,
        "slot": "1",
        "type": "t_mapping(t_address,t_uint256)"
      },
      {
        "astId": 4817,
        "contract": "contracts/Ledgity.sol:Ledgity",
        "label": "_tOwned",
        "offset": 0,
        "slot": "2",
        "type": "t_mapping(t_address,t_uint256)"
      },
      {
        "astId": 4823,
        "contract": "contracts/Ledgity.sol:Ledgity",
        "label": "_allowances",
        "offset": 0,
        "slot": "3",
        "type": "t_mapping(t_address,t_mapping(t_address,t_uint256))"
      },
      {
        "astId": 4827,
        "contract": "contracts/Ledgity.sol:Ledgity",
        "label": "_isExcluded",
        "offset": 0,
        "slot": "4",
        "type": "t_mapping(t_address,t_bool)"
      },
      {
        "astId": 4830,
        "contract": "contracts/Ledgity.sol:Ledgity",
        "label": "_excluded",
        "offset": 0,
        "slot": "5",
        "type": "t_array(t_address)dyn_storage"
      },
      {
        "astId": 4835,
        "contract": "contracts/Ledgity.sol:Ledgity",
        "label": "_tTotal",
        "offset": 0,
        "slot": "6",
        "type": "t_uint256"
      },
      {
        "astId": 4837,
        "contract": "contracts/Ledgity.sol:Ledgity",
        "label": "_rTotal",
        "offset": 0,
        "slot": "7",
        "type": "t_uint256"
      },
      {
        "astId": 4839,
        "contract": "contracts/Ledgity.sol:Ledgity",
        "label": "_tFeeTotal",
        "offset": 0,
        "slot": "8",
        "type": "t_uint256"
      },
      {
        "astId": 4841,
        "contract": "contracts/Ledgity.sol:Ledgity",
        "label": "_name",
        "offset": 0,
        "slot": "9",
        "type": "t_string_storage"
      },
      {
        "astId": 4843,
        "contract": "contracts/Ledgity.sol:Ledgity",
        "label": "_symbol",
        "offset": 0,
        "slot": "10",
        "type": "t_string_storage"
      },
      {
        "astId": 1363,
        "contract": "contracts/Ledgity.sol:Ledgity",
        "label": "numTokensToSwap",
        "offset": 0,
        "slot": "11",
        "type": "t_uint256"
      },
      {
        "astId": 1365,
        "contract": "contracts/Ledgity.sol:Ledgity",
        "label": "inSwapAndLiquify",
        "offset": 0,
        "slot": "12",
        "type": "t_bool"
      },
      {
        "astId": 1372,
        "contract": "contracts/Ledgity.sol:Ledgity",
        "label": "feeDestination",
        "offset": 1,
        "slot": "12",
        "type": "t_enum(FeeDestination)1368"
      },
      {
        "astId": 1379,
        "contract": "contracts/Ledgity.sol:Ledgity",
        "label": "sellAccumulationFee",
        "offset": 0,
        "slot": "13",
        "type": "t_struct(Percent)4715_storage"
      },
      {
        "astId": 1382,
        "contract": "contracts/Ledgity.sol:Ledgity",
        "label": "initialSellAccumulationFee",
        "offset": 0,
        "slot": "14",
        "type": "t_struct(Percent)4715_storage"
      },
      {
        "astId": 1391,
        "contract": "contracts/Ledgity.sol:Ledgity",
        "label": "sellAtSmallPriceAccumulationFee",
        "offset": 0,
        "slot": "15",
        "type": "t_struct(Percent)4715_storage"
      },
      {
        "astId": 1394,
        "contract": "contracts/Ledgity.sol:Ledgity",
        "label": "initialSellAtSmallPriceAccumulationFee",
        "offset": 0,
        "slot": "16",
        "type": "t_struct(Percent)4715_storage"
      },
      {
        "astId": 1401,
        "contract": "contracts/Ledgity.sol:Ledgity",
        "label": "sellReflectionFee",
        "offset": 0,
        "slot": "17",
        "type": "t_struct(Percent)4715_storage"
      },
      {
        "astId": 1404,
        "contract": "contracts/Ledgity.sol:Ledgity",
        "label": "initialSellReflectionFee",
        "offset": 0,
        "slot": "18",
        "type": "t_struct(Percent)4715_storage"
      },
      {
        "astId": 1411,
        "contract": "contracts/Ledgity.sol:Ledgity",
        "label": "buyAccumulationFee",
        "offset": 0,
        "slot": "19",
        "type": "t_struct(Percent)4715_storage"
      },
      {
        "astId": 1414,
        "contract": "contracts/Ledgity.sol:Ledgity",
        "label": "initialBuyAccumulationFee",
        "offset": 0,
        "slot": "20",
        "type": "t_struct(Percent)4715_storage"
      },
      {
        "astId": 1416,
        "contract": "contracts/Ledgity.sol:Ledgity",
        "label": "_dexes",
        "offset": 0,
        "slot": "21",
        "type": "t_struct(AddressSet)6299_storage"
      },
      {
        "astId": 1418,
        "contract": "contracts/Ledgity.sol:Ledgity",
        "label": "_excludedFromDexFee",
        "offset": 0,
        "slot": "23",
        "type": "t_struct(AddressSet)6299_storage"
      },
      {
        "astId": 1420,
        "contract": "contracts/Ledgity.sol:Ledgity",
        "label": "_excludedFromLimits",
        "offset": 0,
        "slot": "25",
        "type": "t_struct(AddressSet)6299_storage"
      },
      {
        "astId": 1424,
        "contract": "contracts/Ledgity.sol:Ledgity",
        "label": "soldPerPeriod",
        "offset": 0,
        "slot": "27",
        "type": "t_mapping(t_address,t_uint256)"
      },
      {
        "astId": 1428,
        "contract": "contracts/Ledgity.sol:Ledgity",
        "label": "firstSellAt",
        "offset": 0,
        "slot": "28",
        "type": "t_mapping(t_address,t_uint256)"
      },
      {
        "astId": 1435,
        "contract": "contracts/Ledgity.sol:Ledgity",
        "label": "maxTransactionSizePercent",
        "offset": 0,
        "slot": "29",
        "type": "t_struct(Percent)4715_storage"
      },
      {
        "astId": 1437,
        "contract": "contracts/Ledgity.sol:Ledgity",
        "label": "uniswapV2Pair",
        "offset": 0,
        "slot": "30",
        "type": "t_contract(IUniswapV2Pair)4177"
      },
      {
        "astId": 1439,
        "contract": "contracts/Ledgity.sol:Ledgity",
        "label": "reserve",
        "offset": 0,
        "slot": "31",
        "type": "t_contract(IReserve)3872"
      },
      {
        "astId": 1441,
        "contract": "contracts/Ledgity.sol:Ledgity",
        "label": "priceOracle",
        "offset": 0,
        "slot": "32",
        "type": "t_contract(ILedgityPriceOracle)3773"
      },
      {
        "astId": 1443,
        "contract": "contracts/Ledgity.sol:Ledgity",
        "label": "initialPrice",
        "offset": 0,
        "slot": "33",
        "type": "t_uint256"
      }
    ],
    "types": {
      "t_address": {
        "encoding": "inplace",
        "label": "address",
        "numberOfBytes": "20"
      },
      "t_array(t_address)dyn_storage": {
        "base": "t_address",
        "encoding": "dynamic_array",
        "label": "address[]",
        "numberOfBytes": "32"
      },
      "t_bool": {
        "encoding": "inplace",
        "label": "bool",
        "numberOfBytes": "1"
      },
      "t_contract(ILedgityPriceOracle)3773": {
        "encoding": "inplace",
        "label": "contract ILedgityPriceOracle",
        "numberOfBytes": "20"
      },
      "t_contract(IReserve)3872": {
        "encoding": "inplace",
        "label": "contract IReserve",
        "numberOfBytes": "20"
      },
      "t_contract(IUniswapV2Pair)4177": {
        "encoding": "inplace",
        "label": "contract IUniswapV2Pair",
        "numberOfBytes": "20"
      },
      "t_enum(FeeDestination)1368": {
        "encoding": "inplace",
        "label": "enum Ledgity.FeeDestination",
        "numberOfBytes": "1"
      },
      "t_mapping(t_address,t_bool)": {
        "encoding": "mapping",
        "key": "t_address",
        "label": "mapping(address => bool)",
        "numberOfBytes": "32",
        "value": "t_bool"
      },
      "t_mapping(t_address,t_mapping(t_address,t_uint256))": {
        "encoding": "mapping",
        "key": "t_address",
        "label": "mapping(address => mapping(address => uint256))",
        "numberOfBytes": "32",
        "value": "t_mapping(t_address,t_uint256)"
      },
      "t_mapping(t_address,t_uint256)": {
        "encoding": "mapping",
        "key": "t_address",
        "label": "mapping(address => uint256)",
        "numberOfBytes": "32",
        "value": "t_uint256"
      },
      "t_string_storage": {
        "encoding": "bytes",
        "label": "string",
        "numberOfBytes": "32"
      },
      "t_struct(AddressSet)6299_storage": {
        "encoding": "inplace",
        "label": "struct Set.AddressSet",
        "members": [
          {
            "astId": 6294,
            "contract": "contracts/Ledgity.sol:Ledgity",
            "label": "values",
            "offset": 0,
            "slot": "0",
            "type": "t_array(t_address)dyn_storage"
          },
          {
            "astId": 6298,
            "contract": "contracts/Ledgity.sol:Ledgity",
            "label": "_valueIndexPlusOne",
            "offset": 0,
            "slot": "1",
            "type": "t_mapping(t_address,t_uint256)"
          }
        ],
        "numberOfBytes": "64"
      },
      "t_struct(Percent)4715_storage": {
        "encoding": "inplace",
        "label": "struct Percent.Percent",
        "members": [
          {
            "astId": 4712,
            "contract": "contracts/Ledgity.sol:Ledgity",
            "label": "numerator",
            "offset": 0,
            "slot": "0",
            "type": "t_uint128"
          },
          {
            "astId": 4714,
            "contract": "contracts/Ledgity.sol:Ledgity",
            "label": "denominator",
            "offset": 16,
            "slot": "0",
            "type": "t_uint128"
          }
        ],
        "numberOfBytes": "32"
      },
      "t_uint128": {
        "encoding": "inplace",
        "label": "uint128",
        "numberOfBytes": "16"
      },
      "t_uint256": {
        "encoding": "inplace",
        "label": "uint256",
        "numberOfBytes": "32"
      }
    }
  }
}